{
  "contractName": "Ticketron",
  "abi": [
    {
      "inputs": [
        {
          "name": "name",
          "type": "string"
        },
        {
          "name": "price",
          "type": "uint256"
        },
        {
          "name": "capacity",
          "type": "uint16"
        }
      ],
      "payable": false,
      "stateMutability": "nonpayable",
      "type": "constructor"
    },
    {
      "anonymous": false,
      "inputs": [
        {
          "indexed": false,
          "name": "key",
          "type": "bytes32"
        }
      ],
      "name": "TicketHash",
      "type": "event"
    },
    {
      "anonymous": false,
      "inputs": [
        {
          "indexed": false,
          "name": "err",
          "type": "string"
        }
      ],
      "name": "ProcessingError",
      "type": "event"
    },
    {
      "constant": false,
      "inputs": [],
      "name": "buyTicket",
      "outputs": [
        {
          "name": "ticketKey",
          "type": "bytes32"
        }
      ],
      "payable": true,
      "stateMutability": "payable",
      "type": "function"
    },
    {
      "constant": false,
      "inputs": [
        {
          "name": "key",
          "type": "bytes32"
        }
      ],
      "name": "useTicket",
      "outputs": [
        {
          "name": "",
          "type": "bool"
        }
      ],
      "payable": false,
      "stateMutability": "nonpayable",
      "type": "function"
    },
    {
      "constant": true,
      "inputs": [],
      "name": "getPrice",
      "outputs": [
        {
          "name": "",
          "type": "uint256"
        }
      ],
      "payable": false,
      "stateMutability": "view",
      "type": "function"
    },
    {
      "constant": true,
      "inputs": [],
      "name": "getTicketsRemaining",
      "outputs": [
        {
          "name": "",
          "type": "uint16"
        }
      ],
      "payable": false,
      "stateMutability": "view",
      "type": "function"
    },
    {
      "constant": true,
      "inputs": [],
      "name": "getOwner",
      "outputs": [
        {
          "name": "",
          "type": "address"
        }
      ],
      "payable": false,
      "stateMutability": "view",
      "type": "function"
    },
    {
      "constant": true,
      "inputs": [],
      "name": "getEventName",
      "outputs": [
        {
          "name": "",
          "type": "string"
        }
      ],
      "payable": false,
      "stateMutability": "view",
      "type": "function"
    },
    {
      "constant": true,
      "inputs": [
        {
          "name": "key",
          "type": "bytes32"
        }
      ],
      "name": "getTicket",
      "outputs": [
        {
          "name": "",
          "type": "bool"
        }
      ],
      "payable": false,
      "stateMutability": "view",
      "type": "function"
    }
  ],
  "bytecode": "0x6060604052341561000f57600080fd5b6040516108893803806108898339810160405280805182019190602001805190602001909190805190602001909190505082600190805190602001906100569291906100e2565b508160028190555080600360006101000a81548161ffff021916908361ffff1602179055506000600360026101000a81548161ffff021916908361ffff16021790555033600360046101000a81548173ffffffffffffffffffffffffffffffffffffffff021916908373ffffffffffffffffffffffffffffffffffffffff160217905550505050610187565b828054600181600116156101000203166002900490600052602060002090601f016020900481019282601f1061012357805160ff1916838001178555610151565b82800160010185558215610151579182015b82811115610150578251825591602001919060010190610135565b5b50905061015e9190610162565b5090565b61018491905b80821115610180576000816000905550600101610168565b5090565b90565b6106f3806101966000396000f300606060405260043610610083576000357c0100000000000000000000000000000000000000000000000000000000900463ffffffff168063893d20e81461008857806398d5fdca146100dd5780639906237714610106578063b81e43fc14610145578063d5d863e3146101d3578063da649e6b14610212578063edca914c14610243575b600080fd5b341561009357600080fd5b61009b610269565b604051808273ffffffffffffffffffffffffffffffffffffffff1673ffffffffffffffffffffffffffffffffffffffff16815260200191505060405180910390f35b34156100e857600080fd5b6100f0610293565b6040518082815260200191505060405180910390f35b341561011157600080fd5b61012b60048080356000191690602001909190505061029d565b604051808215151515815260200191505060405180910390f35b341561015057600080fd5b61015861038d565b6040518080602001828103825283818151815260200191508051906020019080838360005b8381101561019857808201518184015260208101905061017d565b50505050905090810190601f1680156101c55780820380516001836020036101000a031916815260200191505b509250505060405180910390f35b34156101de57600080fd5b6101f8600480803560001916906020019091905050610435565b604051808215151515815260200191505060405180910390f35b341561021d57600080fd5b610225610469565b604051808261ffff1661ffff16815260200191505060405180910390f35b61024b610493565b60405180826000191660001916815260200191505060405180910390f35b6000600360049054906101000a900473ffffffffffffffffffffffffffffffffffffffff16905090565b6000600254905090565b60003373ffffffffffffffffffffffffffffffffffffffff16600080846000191660001916815260200190815260200160002060000160009054906101000a900473ffffffffffffffffffffffffffffffffffffffff1673ffffffffffffffffffffffffffffffffffffffff1614801561033f5750600080836000191660001916815260200190815260200160002060000160149054906101000a900460ff16155b15610383576001600080846000191660001916815260200190815260200160002060000160146101000a81548160ff02191690831515021790555060019050610388565b600090505b919050565b6103956106b3565b60018054600181600116156101000203166002900480601f01602080910402602001604051908101604052809291908181526020018280546001816001161561010002031660029004801561042b5780601f106104005761010080835404028352916020019161042b565b820191906000526020600020905b81548152906001019060200180831161040e57829003601f168201915b5050505050905090565b6000806000836000191660001916815260200190815260200160002060000160149054906101000a900460ff169050919050565b6000600360029054906101000a900461ffff16600360009054906101000a900461ffff1603905090565b6000600254341480156104cd5750600360009054906101000a900461ffff1661ffff16600360029054906101000a900461ffff1661ffff16105b156106b05733604051808273ffffffffffffffffffffffffffffffffffffffff1673ffffffffffffffffffffffffffffffffffffffff166c010000000000000000000000000281526014019150506040518091039020905060408051908101604052803373ffffffffffffffffffffffffffffffffffffffff16815260200160001515815250600080836000191660001916815260200190815260200160002060008201518160000160006101000a81548173ffffffffffffffffffffffffffffffffffffffff021916908373ffffffffffffffffffffffffffffffffffffffff16021790555060208201518160000160146101000a81548160ff021916908315150217905550905050600360049054906101000a900473ffffffffffffffffffffffffffffffffffffffff1673ffffffffffffffffffffffffffffffffffffffff166108fc6002549081150290604051600060405180830381858888f19350505050151561063b57600080fd5b6003600281819054906101000a900461ffff168092919060010191906101000a81548161ffff021916908361ffff160217905550507f5fa817f46f52929964ff78bca24d8a9d3f7058be0726889dd32c00dc999f71958160405180826000191660001916815260200191505060405180910390a15b90565b6020604051908101604052806000815250905600a165627a7a72305820311c056a103baa13782f942b493afec1d7586f2925342ff5966aea6192d595130029",
  "source": "pragma solidity ^0.4.18;\n\ncontract Ticketron {\n    struct Ticket {\n        address owner;\n        bool used;\n    }\n\n    mapping(bytes32 => Ticket) tickets;\n\n    string eventName;\n    uint ticketPrice;\n    uint16 maxTickets;\n    uint16 ticketsSold;\n    address venueOwner;\n\n    event TicketHash(bytes32 key);\n    event ProcessingError(string err);\n\n    function Ticketron(string name, uint price, uint16 capacity) public {\n        eventName = name;\n        ticketPrice = price;\n        maxTickets = capacity;\n        ticketsSold = 0;\n        venueOwner = msg.sender;\n    }\n\n    function buyTicket() payable public returns (bytes32 ticketKey) {\n        if (msg.value == ticketPrice && ticketsSold < maxTickets) {\n            //create ticket\n            ticketKey = keccak256(msg.sender);\n            tickets[ticketKey] = Ticket(msg.sender, false);\n            // transfer funds\n            venueOwner.transfer(ticketPrice);\n            ticketsSold++;\n            TicketHash(ticketKey);\n        }\n    }\n\n    function useTicket(bytes32 key) public returns (bool) {\n        if (tickets[key].owner == msg.sender && !tickets[key].used) {\n            tickets[key].used = true;\n            return true;\n        } else {\n            return false;\n        }\n    }\n\n    function getPrice() public view returns (uint) {\n        return ticketPrice;\n    }\n\n    function getTicketsRemaining() public view returns (uint16) {\n        return maxTickets - ticketsSold;\n    }\n\n    function getOwner() public view returns (address) {\n      return venueOwner;\n    }\n\n    function getEventName() public view returns (string) {\n        return eventName;\n    }\n\n    function getTicket(bytes32 key) public view returns (bool) {\n      return tickets[key].used;\n    }\n}\n",
  "sourcePath": "/Users/jakebergal/Desktop/Fullstack/senior-phase/stackathon/ticketron/truffle/contracts/Ticketron.sol",
  "compiler": {
    "name": "solc",
    "version": "0.4.19+commit.c4cbbb05.Emscripten.clang"
  },
  "schemaVersion": "2.0.0",
  "updatedAt": "2018-03-12T04:09:45.696Z"
}