{
  "contractName": "Ticketron",
  "abi": [
    {
      "constant": true,
      "inputs": [
        {
          "name": "",
          "type": "bytes32"
        }
      ],
      "name": "tickets",
      "outputs": [
        {
          "name": "owner",
          "type": "address"
        },
        {
          "name": "used",
          "type": "bool"
        }
      ],
      "payable": false,
      "stateMutability": "view",
      "type": "function"
    },
    {
      "inputs": [
        {
          "name": "name",
          "type": "string"
        },
        {
          "name": "price",
          "type": "uint256"
        },
        {
          "name": "capacity",
          "type": "uint16"
        }
      ],
      "payable": false,
      "stateMutability": "nonpayable",
      "type": "constructor"
    },
    {
      "anonymous": false,
      "inputs": [
        {
          "indexed": false,
          "name": "key",
          "type": "bytes32"
        }
      ],
      "name": "TicketHash",
      "type": "event"
    },
    {
      "anonymous": false,
      "inputs": [
        {
          "indexed": false,
          "name": "err",
          "type": "string"
        }
      ],
      "name": "ProcessingError",
      "type": "event"
    },
    {
      "constant": false,
      "inputs": [],
      "name": "buyTicket",
      "outputs": [
        {
          "name": "ticketKey",
          "type": "bytes32"
        }
      ],
      "payable": true,
      "stateMutability": "payable",
      "type": "function"
    },
    {
      "constant": false,
      "inputs": [
        {
          "name": "key",
          "type": "bytes32"
        }
      ],
      "name": "useTicket",
      "outputs": [],
      "payable": false,
      "stateMutability": "nonpayable",
      "type": "function"
    },
    {
      "constant": false,
      "inputs": [],
      "name": "getPrice",
      "outputs": [
        {
          "name": "",
          "type": "uint256"
        }
      ],
      "payable": false,
      "stateMutability": "nonpayable",
      "type": "function"
    },
    {
      "constant": false,
      "inputs": [],
      "name": "getTicketsRemaining",
      "outputs": [
        {
          "name": "",
          "type": "uint16"
        }
      ],
      "payable": false,
      "stateMutability": "nonpayable",
      "type": "function"
    }
  ],
  "bytecode": "0x6060604052341561000f57600080fd5b6040516106da3803806106da8339810160405280805182019190602001805190602001909190805190602001909190505082600190805190602001906100569291906100e2565b508160028190555080600360006101000a81548161ffff021916908361ffff1602179055506000600360026101000a81548161ffff021916908361ffff16021790555033600360046101000a81548173ffffffffffffffffffffffffffffffffffffffff021916908373ffffffffffffffffffffffffffffffffffffffff160217905550505050610187565b828054600181600116156101000203166002900490600052602060002090601f016020900481019282601f1061012357805160ff1916838001178555610151565b82800160010185558215610151579182015b82811115610150578251825591602001919060010190610135565b5b50905061015e9190610162565b5090565b61018491905b80821115610180576000816000905550600101610168565b5090565b90565b610544806101966000396000f30060606040526004361061006d576000357c0100000000000000000000000000000000000000000000000000000000900463ffffffff16806398d5fdca14610072578063990623771461009b578063da649e6b146100c2578063df0dd0d5146100f3578063edca914c14610165575b600080fd5b341561007d57600080fd5b61008561018b565b6040518082815260200191505060405180910390f35b34156100a657600080fd5b6100c0600480803560001916906020019091905050610195565b005b34156100cd57600080fd5b6100d561027d565b604051808261ffff1661ffff16815260200191505060405180910390f35b34156100fe57600080fd5b6101186004808035600019169060200190919050506102a7565b604051808373ffffffffffffffffffffffffffffffffffffffff1673ffffffffffffffffffffffffffffffffffffffff168152602001821515151581526020019250505060405180910390f35b61016d6102f8565b60405180826000191660001916815260200191505060405180910390f35b6000600254905090565b3373ffffffffffffffffffffffffffffffffffffffff16600080836000191660001916815260200190815260200160002060000160009054906101000a900473ffffffffffffffffffffffffffffffffffffffff1673ffffffffffffffffffffffffffffffffffffffff161480156102355750600080826000191660001916815260200190815260200160002060000160149054906101000a900460ff16155b15610275576001600080836000191660001916815260200190815260200160002060000160146101000a81548160ff02191690831515021790555061027a565b600080fd5b50565b6000600360029054906101000a900461ffff16600360009054906101000a900461ffff1603905090565b60006020528060005260406000206000915090508060000160009054906101000a900473ffffffffffffffffffffffffffffffffffffffff16908060000160149054906101000a900460ff16905082565b6000600254341480156103325750600360009054906101000a900461ffff1661ffff16600360029054906101000a900461ffff1661ffff16105b156105155733604051808273ffffffffffffffffffffffffffffffffffffffff1673ffffffffffffffffffffffffffffffffffffffff166c010000000000000000000000000281526014019150506040518091039020905060408051908101604052803373ffffffffffffffffffffffffffffffffffffffff16815260200160001515815250600080836000191660001916815260200190815260200160002060008201518160000160006101000a81548173ffffffffffffffffffffffffffffffffffffffff021916908373ffffffffffffffffffffffffffffffffffffffff16021790555060208201518160000160146101000a81548160ff021916908315150217905550905050600360049054906101000a900473ffffffffffffffffffffffffffffffffffffffff1673ffffffffffffffffffffffffffffffffffffffff166108fc6002549081150290604051600060405180830381858888f1935050505015156104a057600080fd5b6003600281819054906101000a900461ffff168092919060010191906101000a81548161ffff021916908361ffff160217905550507f5fa817f46f52929964ff78bca24d8a9d3f7058be0726889dd32c00dc999f71958160405180826000191660001916815260200191505060405180910390a15b905600a165627a7a72305820a61337711ce08a9766fabdd0a60fbdf81c59d44bedd9c8fcd9d50865305ae1990029",
  "source": "pragma solidity ^0.4.18;\n\ncontract Ticketron {\n    struct Ticket {\n        address owner;\n        bool used;\n    }\n\n    mapping(bytes32 => Ticket) public tickets;\n\n    string eventName;\n    uint ticketPrice;\n    uint16 maxTickets;\n    uint16 ticketsSold;\n    address owner;\n\n    event TicketHash(bytes32 key);\n    event ProcessingError(string err);\n\n    function Ticketron(string name, uint price, uint16 capacity) public {\n        eventName = name;\n        ticketPrice = price;\n        maxTickets = capacity;\n        ticketsSold = 0;\n        owner = msg.sender;\n    }\n\n    function buyTicket() payable public returns (bytes32 ticketKey) {\n        if(msg.value == ticketPrice && ticketsSold < maxTickets) {\n            //create ticket\n            ticketKey = keccak256(msg.sender);\n            tickets[ticketKey] = Ticket(msg.sender, false);\n            // transfer funds\n            owner.transfer(ticketPrice);\n            ticketsSold++;\n            TicketHash(ticketKey);\n        }\n    }\n\n    function useTicket(bytes32 key) public {\n        if(tickets[key].owner == msg.sender && !tickets[key].used) {\n            tickets[key].used = true;\n        } else {\n            revert();\n        }\n    }\n\n    function getPrice() public returns (uint) {\n        return ticketPrice;\n    }\n\n    function getTicketsRemaining() public returns (uint16) {\n        return maxTickets - ticketsSold;\n    }\n}\n",
  "sourcePath": "/Users/jakebergal/Desktop/Fullstack/senior-phase/stackathon/ticketron/truffle/contracts/Ticketron.sol",
  "compiler": {
    "name": "solc",
    "version": "0.4.19+commit.c4cbbb05.Emscripten.clang"
  },
  "schemaVersion": "2.0.0",
  "updatedAt": "2018-03-09T16:58:08.738Z"
}